:020000040800F2
:1000000000280020A114000831140008371400084B
:100010003D140008431400084914000800000000C3
:100020000000000000000000000000004F14000865
:100030005B14000800000000671400087314000837
:10004000E9140008E9140008E9140008E91400089C
:10005000E9140008E9140008E9140008E91400088C
:10006000E9140008E9140008E9140008E91400087C
:10007000E9140008E9140008E9140008E91400086C
:10008000E9140008E9140008E9140008E91400085C
:10009000E9140008E9140008E9140008E91400084C
:1000A000E9140008E9140008E9140008E91400083C
:1000B00081140008E914000800000000E914000899
:1000C000E91400080000000000000000E914000826
:1000D00000000000E9140008E91400080000000016
:1000E000E9140008E9140008E91400080000000001
:1000F0000000000000000000000000000000000000
:0C01000000000000000000005FF808F1A3
:10010C0010B5054C237833B9044B13B10448AFF345
:10011C0000800123237010BD70000020000000003F
:10012C00382B000808B5034B1BB103490348AFF348
:10013C00008008BD0000000074000020382B00086F
:10014C0080B400AF064B1B68012B04D1044B00227A
:10015C001A60012300E000231846BD4680BC70479E
:10016C008C00002080B400AF064B1B68012B04D11F
:10017C00044B00221A60012300E000231846BD4600
:10018C0080BC70479000002080B400AF064B1B6809
:10019C00012B04D1044B00221A60012300E0002340
:1001AC001846BD4680BC70479400002080B500AF57
:1001BC00184B1B68184A1360184B1B68154A1360C0
:1001CC008021174801F078FC03461A46134B1A603D
:1001DC00104B1A68114B1B689A4219D10D4B1A68B7
:1001EC000D4B1B689A4213D10B4B1A680D4B1B68B5
:1001FC009A420DD0084B1B680A4A1360094B1B68C6
:10020C00002B05D1084BC8221A60084B01221A603A
:10021C0000BF80BD18000020240000200C0000202E
:10022C000008014030000020000000208C0000205D
:10023C0080B500AF194B5B68194A5360194B5B686A
:10024C00164A53604FF48071174801F035FC034691
:10025C001A46144B5A60114B5A68124B5B689A42FF
:10026C0019D10E4B5A680E4B5B689A4213D10C4B4A
:10027C005A680E4B5B689A420DD0094B5B680B4A6F
:10028C0053600A4B5B68002B05D1094BC8221A60DE
:10029C00084B01221A6000BF80BD00BF180000206F
:1002AC00240000200C000020000801403000002039
:1002BC00040000209000002080B500AF194B9B6813
:1002CC00194A9360194B9B68164A93604FF400715E
:1002DC00174801F0F1FB03461A46144B9A60114B78
:1002EC009A68124B9B689A4219D10E4B9A680E4B26
:1002FC009B689A4213D10C4B9A680E4B9B689A429E
:10030C000DD0094B9B680B4A93600A4B9B68002BE2
:10031C0005D1094BC8221A60084B01221A6000BF94
:10032C0080BD00BF18000020240000200C0000201D
:10033C00000801403000002008000020940000203C
:10034C0080B500AF00220121114801F0CCFB002246
:10035C0002210F4801F0C7FB002204210C4801F0D8
:10036C00C2FB002208210A4801F0BDFB002210212B
:10037C00074801F0B8FB00222021054801F0B3FB2F
:10038C0001224021024801F0AEFB00BF80BD00BF3E
:10039C00000C014080B500AF01220121114801F091
:1003AC00A2FB002202210F4801F09DFB0022042138
:1003BC000C4801F098FB012208210A4801F093FB3C
:1003CC0001221021074801F08EFB01222021054853
:1003DC0001F089FB01224021024801F084FB00BF9F
:1003EC0080BD00BF000C014080B500AF0022012190
:1003FC00114801F078FB002202210F4801F073FB39
:10040C00012204210C4801F06EFB002208210A484D
:10041C0001F069FB00221021074801F064FB012266
:10042C002021054801F05FFB00224021024801F029
:10043C005AFB00BF80BD00BF000C014080B500AF6F
:10044C0000220121114801F04EFB002202210F482D
:10045C0001F049FB002204210C4801F044FB00226E
:10046C0008210A4801F03FFB01221021074801F046
:10047C003AFB01222021054801F035FB00224021E6
:10048C00024801F030FB00BF80BD00BF000C0140F2
:10049C0080B500AF01220121114801F024FB00229C
:1004AC0002210F4801F01FFB002204210C4801F02F
:1004BC001AFB012208210A4801F015FB0122102128
:1004CC00074801F010FB00222021054801F00BFB2E
:1004DC0000224021024801F006FB00BF80BD00BF96
:1004EC00000C014080B500AF00220121114801F041
:1004FC00FAFA012202210F4801F0F5FA0022042138
:10050C000C4801F0F0FA002208210A4801F0EBFA3D
:10051C0001221021074801F0E6FA002220210548AB
:10052C0001F0E1FA00224021024801F0DCFA00BFA0
:10053C0080BD00BF000C014080B500AF002201213E
:10054C00114801F0D0FA012202210F4801F0CBFA38
:10055C00002204210C4801F0C6FA002208210A48A6
:10056C0001F0C1FA00221021074801F0BCFA002268
:10057C002021054801F0B7FA00224021024801F081
:10058C00B2FA00BF80BD00BF000C014080B500AFC7
:10059C0000220121114801F0A6FA002202210F4885
:1005AC0001F0A1FA002204210C4801F09CFA01226E
:1005BC0008210A4801F097FA01221021074801F09E
:1005CC0092FA01222021054801F08DFA01224021E6
:1005DC00024801F088FA00BF80BD00BF000C01404A
:1005EC0080B500AF00220121114801F07CFA0022F5
:1005FC0002210F4801F077FA002204210C4801F087
:10060C0072FA002208210A4801F06DFA002210212A
:10061C00074801F068FA00222021054801F063FA2E
:10062C0000224021024801F05EFA00BF80BD00BFED
:10063C00000C014080B500AF00220121114801F0EF
:10064C0052FA002202210F4801F04DFA0022042137
:10065C000C4801F048FA002208210A4801F043FA3C
:10066C0001221021074801F03EFA00222021054802
:10067C0001F039FA00224021024801F034FA00BF9F
:10068C0080BD00BF000C014080B582B000AF786027
:10069C007B68092B34D801A252F823F0D10600084C
:1006AC00D7060008DD060008E3060008E906000886
:1006BC00EF060008F5060008FB0600080107000815
:1006CC0007070008FFF73CFE1BE0FFF763FE18E08E
:1006DC00FFF78AFE15E0FFF7B1FE12E0FFF7D8FE38
:1006EC000FE0FFF7FFFE0CE0FFF726FF09E0FFF736
:1006FC004DFF06E0FFF774FF03E0FFF79BFF00E000
:10070C0000BF00BF0837BD4680BD00BF80B500AF3D
:10071C00624B1B68013B032B00F2A18001A252F833
:10072C0023F000BF410700088D070008D707000819
:10073C002108000800221021594801F0D4F90122A7
:10074C004021574801F0CFF901228021554801F092
:10075C00CAF901224FF48071524801F0C4F9524B8E
:10076C001B681846FFF790FF504B1B68012B40F09D
:10077C008C804A4B02221A60FA2000F055FD84E06E
:10078C0001221021464801F0AEF9002240214448D4
:10079C0001F0A9F901228021424801F0A4F90122BB
:1007AC004FF480713F4801F09EF93F4B5B6818464F
:1007BC00FFF76AFF3D4B1B68012B68D1374B0322B7
:1007CC001A60FA2000F030FD61E00122102134485B
:1007DC0001F089F901224021314801F084F900220D
:1007EC008021304801F07FF901224FF480712D48AF
:1007FC0001F079F92C4B9B681846FFF745FF2B4B02
:10080C001B68012B45D1254B04221A60FA2000F0FD
:10081C000BFD3EE001221021214801F064F9012278
:10082C0040211F4801F05FF9012280211D4801F091
:10083C005AF900224FF480711A4801F054F91A4BFE
:10084C00DB681846FFF720FF184B1B68012B22D1E1
:10085C00124B01221A60FA2000F0E6FC1BE0012288
:10086C0010210F4801F03FF9012240210C4801F002
:10087C003AF9012280210B4801F035F901224FF49D
:10088C008071084801F02FF906E000BF04E000BFBA
:10089C0002E000BF00E000BF00BF80BD3C000020B4
:1008AC0000080140000C0140A00000200C010020B9
:1008BC0080B500AF924B1B68042B00F2F08001A2B4
:1008CC0052F823F0E5080008F90800086709000849
:1008DC00D30900083F0A0008894B01221A60894B92
:1008EC0006225A60874B04221A60E1E000224FF482
:1008FC008061854801F0F7F801224FF400618248CD
:10090C0001F0F1F801224FF480517F4801F0EBF82F
:10091C0001224FF400517C4801F0E5F800224FF41D
:10092C008041794801F0DFF801224FF4004176480C
:10093C0001F0D9F8754B1B68012B40F0B280704B5D
:10094C0002221A606F4B03225A606E4B03221A600C
:10095C0040F6B83000F04EFCA3E000224FF480616A
:10096C00694801F0C0F801224FF40061664801F0BB
:10097C00BAF801224FF48051634801F0B4F8012217
:10098C004FF40051604801F0AEF801224FF4804161
:10099C005D4801F0A8F800224FF400415A4801F0DC
:1009AC00A2F85A4B1B68012B7DD1554B03221A60C0
:1009BC00544B04225A60534B06221A604FF4FA60CF
:1009CC0000F018FC6FE001224FF480614E4801F0FA
:1009DC008AF800224FF400614B4801F084F80122A0
:1009EC004FF48051484801F07EF800224FF400513A
:1009FC00454801F078F801224FF48041424801F05B
:100A0C0072F801224FF400413F4801F06CF83F4B63
:100A1C001B68012B49D13A4B04221A60394B032233
:100A2C005A60384B03221A6040F6B83000F0E2FBF3
:100A3C003BE001224FF48061334801F054F801226D
:100A4C004FF40061304801F04EF800224FF4805111
:100A5C002D4801F048F800224FF400512A4801F0CB
:100A6C0042F801224FF48041274801F03CF8012262
:100A7C004FF40041244801F036F8244B1B68012B3D
:100A8C0015D11F4B01221A601E4B06225A601D4BBA
:100A9C0004221A604FF4FA6000F0ACFB07E000BFD0
:100AAC0006E000BF04E000BF02E000BF00E000BFB2
:100ABC00174B1B68012B21D1114B1A68154B1B6866
:100ACC009A421BD00F4B1B68013B0E4A13600D4B17
:100ADC005B68013B0B4A53600A4B1B68002B02DA24
:100AEC00084B05221A60074B5B68002B02DA054B9A
:100AFC0006225A604FF47A7000F0B0FB00BF80BD44
:100B0C0098000020A00000200008014004010020F3
:100B1C00140100204000002080B500AF294B1B6859
:100B2C00012B32D1284B1B68DBB21A464FF4806183
:100B3C00264800F0D8FF244B1B68DBB21A464FF452
:100B4C000051224800F0CFFF01224FF400611F48F2
:100B5C0000F0C9FF01224FF480411C4800F0C3FF94
:100B6C0001224FF48051194800F0BDFF01224FF4CF
:100B7C000041164800F0B7FF134B1B68C3F101038B
:100B8C00114A1360FA2000F083FBFFF7EBFA0346DF
:100B9C00012B0BD10E4B1B6801330D4A13600C4B10
:100BAC001B68632B02DD0A4B00221A60FFF7ECFA7C
:100BBC000346012B03D1064B1B68064A136000BF8A
:100BCC0080BD00BF1C010020440000200008014033
:100BDC00540000204800002080B500AF294B1B6852
:100BEC00012B32D1284B1B68DBB21A464FF4006143
:100BFC00264800F078FF244B1B68DBB21A464FF4F2
:100C0C008041224800F06FFF01224FF480611F48A1
:100C1C0000F069FF01224FF400511C4800F063FF03
:100C2C0001224FF48051194800F05DFF01224FF46E
:100C3C000041164800F057FF134B1B68C3F101032A
:100C4C00114A1360FA2000F023FBFFF78BFA0346DE
:100C5C00012B0BD10E4B1B6801330D4A13600C4B4F
:100C6C001B68632B02DD0A4B00221A60FFF78CFA1B
:100C7C000346012B03D1064B1B68064A136000BFC9
:100C8C0080BD00BF1C010020440000200008014072
:100C9C005C0000205000002080B500AF294B1B6881
:100CAC00012B32D1284B1B68DBB21A464FF4805112
:100CBC00264800F018FF244B1B68DBB21A464FF491
:100CCC000041224800F00FFF01224FF480611F48C1
:100CDC0000F009FF01224FF400511C4800F003FF03
:100CEC0001224FF40061194800F0FDFE01224FF47F
:100CFC008041164800F0F7FE134B1B68C3F101034B
:100D0C00114A1360FA2000F0C3FAFFF72BFA0346DE
:100D1C00012B0BD10E4B1B6801330D4A13600C4B8E
:100D2C001B68632B02DD0A4B00221A60FFF72CFABA
:100D3C000346012B03D1064B1B68064A136000BF08
:100D4C0080BD00BF1C0100204400002000080140B1
:100D5C00580000204C00002080B500AF674B1B688A
:100D6C00042B00F2BF8001A252F823F08D0D000875
:100D7C009B0D0008C70D00082B0E00088F0E0008F5
:100D8C005E4B01221A605E4B00221A60B3E0FFF743
:100D9C008FFD5C4B00229A605A4B0122DA60FFF700
:100DAC00CFF90346012B40F09F80544B02221A606E
:100DBC00554B1B68524A136096E0FFF7ADFE534B40
:100DCC001B68534A82FB03129210DB17D31A4D4A4D
:100DDC0013604E4B19684E4B83FB01239A10CB17B3
:100DEC00D21A13469B0013445B00CA1A454B5A6037
:100DFC00444B00229A60434B0222DA60FFF7A0F9C1
:100E0C000346012B72D1434B1B68404A13603B4B8A
:100E1C0003221A603C4B1B68394A136066E0FFF7EB
:100E2C00DBFE3D4B1B683A4A82FB03129210DB1728
:100E3C00D31A344A1360384B1968354B83FB0123A2
:100E4C009A10CB17D21A13469B0013445B00CA1A94
:100E5C002C4B5A602B4B00229A602A4B0322DA60EF
:100E6C00FFF76EF90346012B42D12C4B1B682A4A23
:100E7C001360224B04221A60234B1B68204A136018
:100E8C0036E0FFF709FF264B1B68214A82FB031251
:100E9C009210DB17D31A1B4A1360214B19681C4B99
:100EAC0083FB01239A10CB17D21A13469B001344D1
:100EBC005B00CA1A134B5A60124B00229A60114BFA
:100ECC000422DA60FFF73CF90346012B12D1154BD3
:100EDC001B68134A1360094B01221A60084B00224D
:100EEC001A6007E000BF06E000BF04E000BF02E0AC
:100EFC0000BF00E000BF00BF80BD00BF9C00002011
:100F0C0098000020A0000020400000205400002089
:100F1C0067666666480000205C00002050000020D8
:100F2C00580000204C00002080B500AF00F0D8FA2B
:100F3C0000F036F800F0BCF800F06EF8154801F03F
:100F4C0031FA0A2000F02EF94FF47A7000F038F9DB
:100F5C004FF47A7000F04EF94FF47A7000F064F9A7
:100F6C004FF47A7000F094F94FF47A7000F076F93F
:100F7C00094B1B68012B07D12021084800F0CBFD41
:100F8C004FF47A7000F01CF9FFF7E6FEFFF7BEFB9A
:100F9C00EEE700BFB0000020FC000020000801407C
:100FAC0080B590B000AF07F1180328220021184635
:100FBC0001F0B4FD3B1D00221A605A609A60DA60A1
:100FCC001A610223BB610123BB621023FB62002365
:100FDC007B6307F11803184600F0B6FD0346002B9F
:100FEC0001D000F0D9F80F237B600023BB600023F5
:100FFC00FB6000233B6100237B613B1D00211846F5
:10100C0001F024F80346002B01D000F0C5F800BF16
:10101C004037BD4680BD000080B586B000AF07F1FB
:10102C00080300221A605A609A60DA603B4600227C
:10103C001A605A601D4B4FF080421A601B4B41F6F0
:10104C003F725A60194B00229A60184B0922DA60E1
:10105C00164B00221A61154B00229A61134801F0BD
:10106C0051F90346002B01D000F096F84FF4805351
:10107C00BB6007F1080319460C4801F0E7FA034678
:10108C00002B01D000F088F800233B6000237B602C
:10109C003B461946054801F0B3FC0346002B01D032
:1010AC0000F07AF800BF1837BD4680BDB0000020B4
:1010BC0080B586B000AF07F1080300221A605A60B1
:1010CC009A60DA60294B9B69284A43F004039361C8
:1010DC00264B9B6903F004037B607B68234B9B6965
:1010EC00224A43F008039361204B9B6903F00803E9
:1010FC003B603B6800224FF670411D4800F0F3FC4A
:10110C00002240F2FF111B4800F0EDFC4FF670433B
:10111C00BB600123FB6000233B6102237B6107F171
:10112C0008031946124800F04BFB4FF46073BB6088
:10113C000023FB6001233B6107F1080319460C48AF
:10114C0000F03EFB40F2FF13BB600123FB60002369
:10115C003B6102237B6107F108031946054800F047
:10116C002FFB00BF1837BD4680BD00BF00100240EA
:10117C0000080140000C014080B582B000AF7860DF
:10118C0000F0A0F8FFF712F8FFF752F8FFF794F809
:10119C0000BF0837BD4680BD80B400AF72B600BF3B
:1011AC00FEE7000080B483B000AF7860034A7B6830
:1011BC00136000BF0C37BD4680BC70476000002038
:1011CC0080B483B000AF7860074B1B687A6892FBE1
:1011DC00F3F3064A1360064B00221A6000BF0C376B
:1011EC00BD4680BC704700BF60000020F8000020A6
:1011FC00FC00002080B483B000AF7860074B1B6804
:10120C007A6892FBF3F3064A1360064B00221A60CD
:10121C0000BF0C37BD4680BC704700BF600000208B
:10122C00000100200401002080B483B000AF78607E
:10123C00074B1B687A6892FBF3F3064A1360064B64
:10124C0000221A6000BF0C37BD4680BC704700BF3F
:10125C0060000020080100200C01002080B483B045
:10126C0000AF7860074B1B687A6892FBF3F3064A71
:10127C001360064B00221A6000BF0C37BD4680BCC1
:10128C00704700BF600000201001002014010020F6
:10129C0080B483B000AF7860074B1B687A6892FB10
:1012AC00F3F3064A1360064B00221A6000BF0C379A
:1012BC00BD4680BC704700BF6000002018010020B4
:1012CC001C01002080B400AF294B1B68002B0BDDE8
:1012DC00274B1B68013B264A1360254B1B68002BD0
:1012EC0002DC244B01221A60234B1B68002B0BDD04
:1012FC00214B1B68013B204A13601F4B1B68002BC2
:10130C0002DC1E4B01221A601D4B1B68002B0BDDEF
:10131C001B4B1B68013B1A4A1360194B1B68002BB3
:10132C0002DC184B01221A60174B1B68002B0BDDDB
:10133C00154B1B68013B144A1360134B1B68002BA5
:10134C0002DC124B01221A60114B1B68002B0BDDC7
:10135C000F4B1B68013B0E4A13600D4B1B68002B97
:10136C0002DC0C4B01221A6000BFBD4680BC7047EA
:10137C00F8000020FC0000200001002004010020E7
:10138C00080100200C010020100100201401002095
:10139C00180100201C01002080B483B000AF0E4B5C
:1013AC009B690D4A43F0010393610B4B9B6903F05E
:1013BC0001037B607B68084BDB69074A43F0805371
:1013CC00D361054BDB6903F080533B603B6800BF86
:1013DC000C37BD4680BC70470010024080B584B00D
:1013EC0000AF78607B681B68B3F1804F13D10C4B56
:1013FC00DB690B4A43F00103D361094BDB6903F052
:10140C000103FB60FB68002200211C2000F0A1F905
:10141C001C2000F0BAF900BF1037BD4680BD00BFDC
:10142C000010024080B400AFFEE780B400AFFEE7CE
:10143C0080B400AFFEE780B400AFFEE780B400AF2D
:10144C00FEE780B400AF00BFBD4680BC704780B4DF
:10145C0000AF00BFBD4680BC704780B400AF00BF7A
:10146C00BD4680BC704780B500AF00F07FF800BF70
:10147C0080BD000080B500AF024800F0DFFF00BF68
:10148C0080BD00BFB000002080B400AF00BFBD46DF
:10149C0080BC7047FFF7F8FF0B480C490C4A00233F
:1014AC0002E0D458C4500433C4188C42F9D3094A0E
:1014BC00094C002301E013600432A242FBD301F07B
:1014CC0009FBFFF731FD7047000000207000002081
:1014DC007C2B00087000002024010020FEE7000097
:1014EC0080B500AF084B1B68074A43F0100313602C
:1014FC00032000F023F90F2000F008F8FFF74CFF51
:10150C000023184680BD00BF0020024080B582B089
:10151C0000AF7860124B1A68124B1B7819464FF4C7
:10152C007A73B3FBF1F3B2FBF3F3184600F03BF91B
:10153C000346002B01D001230EE07B680F2B0AD849
:10154C00002279684FF0FF3000F003F9064A7B68FF
:10155C001360002300E0012318460837BD4680BD08
:10156C00640000206C0000206800002080B400AFF4
:10157C00054B1B781A46054B1B681344034A136032
:10158C0000BFBD4680BC70476C00002020010020CD
:10159C0080B400AF024B1B681846BD4680BC704738
:1015AC002001002080B485B000AF78607B6803F028
:1015BC000703FB600C4BDB68BB60BA684FF6FF039C
:1015CC001340BB60FB681A02BB68134343F0BF6354
:1015DC0043F40033BB60044ABB68D36000BF1437CC
:1015EC00BD4680BC704700BF00ED00E080B400AF8A
:1015FC00044BDB681B0A03F007031846BD4680BC8E
:10160C00704700BF00ED00E080B483B000AF03462C
:10161C00FB7197F90730002B0BDBFB7903F01F02F2
:10162C00064997F907305B09012000FA02F241F8EC
:10163C00232000BF0C37BD4680BC704700E100E0A2
:10164C0080B483B000AF03463960FB7197F9073063
:10165C00002B0ADB3B68DAB20C4997F90730120110
:10166C00D2B20B4483F800230AE03B68DAB2084993
:10167C00FB7903F00F03043B1201D2B20B441A7630
:10168C0000BF0C37BD4680BC704700BF00E100E0D6
:10169C0000ED00E080B489B000AFF860B9607A600A
:1016AC00FB6803F00703FB61FB69C3F10703042B21
:1016BC0028BF0423BB61FB690433062B02D9FB69E9
:1016CC00033B00E000237B614FF0FF32BB6902FA61
:1016DC0003F3DA43BB681A407B699A404FF0FF3141
:1016EC007B6901FA03F3D9437B680B40134318461B
:1016FC002437BD4680BC704780B582B000AF78609F
:10170C007B68013BB3F1807F01D301230FE00A4AD0
:10171C007B68013B53600F214FF0FF30FFF790FFC8
:10172C00054B00229A60044B07221A6000231846CE
:10173C000837BD4680BD00BF10E000E080B582B028
:10174C0000AF78607868FFF72DFF00BF0837BD4603
:10175C0080BD80B586B000AF0346B9607A60FB737C
:10176C0000237B61FFF742FF78617A68B96878697A
:10177C00FFF790FF024697F90F3011461846FFF716
:10178C005FFF00BF1837BD4680BD80B582B000AF8B
:10179C000346FB7197F907301846FFF735FF00BF7A
:1017AC000837BD4680BD80B582B000AF78607868E0
:1017BC00FFF7A2FF034618460837BD4680BD000060
:1017CC0080B48BB000AF7860396000237B6200235B
:1017DC003B6261E101227B6A02FA03F3FB613B6825
:1017EC001B68FA691340BB61BA69FB699A4240F005
:1017FC0050813B685B68974A93425ED0954A93420E
:10180C0075D8954A934258D0934A93426FD8934ACD
:10181C00934252D0914A934269D8914A93424CD008
:10182C008F4A934263D88F4A934246D08D4A934253
:10183C005DD8122B2AD8122B59D801A252F823F0BA
:10184C00C7180008A1180008B3180008F5180008FC
:10185C00FB180008FB180008FB180008FB18000810
:10186C00FB180008FB180008FB180008FB18000800
:10187C00FB180008FB180008FB180008FB180008F0
:10188C00FB180008A9180008BD180008764A9342F6
:10189C0013D02CE03B68DB683B6229E03B68DB68DB
:1018AC0004333B6224E03B68DB6808333B621FE097
:1018BC003B68DB680C333B621AE03B689B68002B8F
:1018CC0002D104233B6213E03B689B68012B05D1DA
:1018DC0008233B627B68FA691A6109E008233B62C2
:1018EC007B68FA695A6103E000233B6200E000BFA9
:1018FC00BB69FF2B01D87B6801E07B6804337B61FB
:10190C00BB69FF2B02D87B6A9B0002E07B6A083B19
:10191C009B003B617B691A680F213B6901FA03F359
:10192C00DB431A40396A3B6901FA03F31A437B69BA
:10193C001A603B685B6803F08053002B00F0A980B1
:10194C004A4B9B69494A43F001039361474B9B699E
:10195C0003F00103BB60BB68454A7B6A9B080233FA
:10196C0052F82330FB607B6A03F003039B000F22C9
:10197C0002FA03F3DB43FA681340FB607B683D4AD1
:10198C0093420DD07B683C4A934207D07B683B4A1C
:10199C00934201D1022304E0032302E0012300E07F
:1019AC0000237A6A02F0030292009340FA68134310
:1019BC00FB602F497B6A9B080233FA6841F82320AD
:1019CC003B685B6803F48013002B06D02C4B9A68A1
:1019DC002B49BB6913438B6006E0294B9A68BB69A2
:1019EC00DB43274913408B603B685B6803F40013AF
:1019FC00002B06D0224BDA682149BB691343CB601C
:101A0C0006E01F4BDA68BB69DB431D491340CB6012
:101A1C003B685B6803F40033002B06D0184B5A6804
:101A2C001749BB6913434B6006E0154B5A68BB69F9
:101A3C00DB43134913404B603B685B6803F4803312
:101A4C00002B1FD00E4B1A680D49BB6913430B605A
:101A5C001FE000BF00003210000031100000221007
:101A6C0000002110000012100000111000100240A4
:101A7C000000014000080140000C01400010014032
:101A8C00000401400B4B1A68BB69DB430949134046
:101A9C000B607B6A01337B623B681A687B6A22FAB3
:101AAC0003F3002B7FF496AE00BF00BF2C37BD466E
:101ABC0080BC70470004014080B485B000AF7860F2
:101ACC000B467B807B689A687B881340002B02D086
:101ADC000123FB7301E00023FB73FB7B18461437D7
:101AEC00BD4680BC704780B483B000AF78600B46B5
:101AFC007B8013467B707B78002B03D07A887B68C5
:101B0C001A6103E07B881A047B681A6100BF0C37EA
:101B1C00BD4680BC704780B485B000AF78600B4682
:101B2C007B807B68DB68FB607A88FB6813401A0457
:101B3C00FB68D9437B880B401A437B681A6100BF52
:101B4C001437BD4680BC704780B586B000AF786056
:101B5C007B68002B01D1012372E27B681B6803F0C8
:101B6C000103002B00F08780924B5B6803F00C03A1
:101B7C00042B0CD08F4B5B6803F00C03082B12D199
:101B8C008C4B5B6803F48033B3F5803F0BD1894BEE
:101B9C001B6803F40033002B6CD07B685B68002B54
:101BAC0068D101234CE27B685B68B3F5803F06D1BA
:101BBC00804B1B687F4A43F4803313602EE07B68B4
:101BCC005B68002B0CD17B4B1B687A4A23F4803367
:101BDC001360784B1B68774A23F4802313601DE055
:101BEC007B685B68B3F5A02F0CD1724B1B68714AF4
:101BFC0043F4802313606F4B1B686E4A43F48033AD
:101C0C0013600BE06B4B1B686A4A23F48033136040
:101C1C00684B1B68674A23F4802313607B685B68FE
:101C2C00002B13D0FFF7B4FC386108E0FFF7B0FCD1
:101C3C0002463B69D31A642B01D9032300E25D4BA6
:101C4C001B6803F40033002BF0D014E0FFF7A0FC6A
:101C5C00386108E0FFF79CFC02463B69D31A642B01
:101C6C0001D90323ECE1534B1B6803F40033002B25
:101C7C00F0D100E000BF7B681B6803F00203002B6F
:101C8C0063D04C4B5B6803F00C03002B0BD0494B1F
:101C9C005B6803F00C03082B1CD1464B5B6803F408
:101CAC008033002B16D1434B1B6803F00203002B2F
:101CBC0005D07B681B69012B01D00123C0E13D4B92
:101CCC001B6823F0F8027B685B69DB00394913431E
:101CDC000B603AE07B681B69002B20D0364B01224D
:101CEC001A60FFF755FC386108E0FFF751FC02461B
:101CFC003B69D31A022B01D90323A1E12D4B1B689D
:101D0C0003F00203002BF0D02A4B1B6823F0F802DF
:101D1C007B685B69DB00274913430B6015E0264B9E
:101D2C0000221A60FFF734FC386108E0FFF730FC42
:101D3C0002463B69D31A022B01D9032380E11D4BC8
:101D4C001B6803F00203002BF0D17B681B6803F0C7
:101D5C000803002B3AD07B689B69002B19D0174BDA
:101D6C0001221A60FFF714FC386108E0FFF710FC41
:101D7C0002463B69D31A022B01D9032360E10D4BB8
:101D8C005B6A03F00203002BF0D0012000F09CFAF8
:101D9C001CE00A4B00221A60FFF7FAFB38610FE0D7
:101DAC00FFF7F6FB02463B69D31A022B08D9032333
:101DBC0046E100BF00100240000042428004424253
:101DCC00924B5B6A03F00203002BE9D17B681B6822
:101DDC0003F00403002B00F0A6800023FB758B4B53
:101DEC00DB6903F08053002B0DD1884BDB69874AEC
:101DFC0043F08053D361854BDB6903F08053BB60A8
:101E0C00BB680123FB75824B1B6803F48073002BAA
:101E1C0018D17F4B1B687E4A43F480731360FFF725
:101E2C00B7FB386108E0FFF7B3FB02463B69D31AF6
:101E3C00642B01D9032303E1754B1B6803F48073F6
:101E4C00002BF0D07B68DB68012B06D16F4B1B6A33
:101E5C006E4A43F0010313622DE07B68DB68002BB4
:101E6C000CD16A4B1B6A694A23F001031362674B5E
:101E7C001B6A664A23F0040313621CE07B68DB6870
:101E8C00052B0CD1614B1B6A604A43F004031362AF
:101E9C005E4B1B6A5D4A43F0010313620BE05B4B24
:101EAC001B6A5A4A23F001031362584B1B6A574AA8
:101EBC0023F0040313627B68DB68002B15D0FFF75B
:101ECC0067FB38610AE0FFF763FB02463B69D31AF4
:101EDC0041F28832934201D90323B1E04B4B1B6A88
:101EEC0003F00203002BEED014E0FFF751FB386136
:101EFC000AE0FFF74DFB02463B69D31A41F28832E8
:101F0C00934201D903239BE0404B1B6A03F002036D
:101F1C00002BEED1FB7D012B05D13C4BDB693B4A01
:101F2C0023F08053D3617B68DB69002B00F0878042
:101F3C00364B5B6803F00C03082B61D07B68DB69C4
:101F4C00022B46D1334B00221A60FFF721FB38617C
:101F5C0008E0FFF71DFB02463B69D31A022B01D99F
:101F6C0003236DE0294B1B6803F00073002BF0D1A9
:101F7C007B681B6AB3F5803F08D1244B5B6823F464
:101F8C0000327B689B68214913434B601F4B5B6895
:101F9C0023F474127B68196A7B685B6A0B431B49D8
:101FAC0013434B601B4B01221A60FFF7F1FA3861A7
:101FBC0008E0FFF7EDFA02463B69D31A022B01D970
:101FCC0003233DE0114B1B6803F00073002BF0D092
:101FDC0035E0104B00221A60FFF7DAFA386108E09E
:101FEC00FFF7D6FA02463B69D31A022B01D9032319
:101FFC0026E0064B1B6803F00073002BF0D11EE0AB
:10200C007B68DB69012B07D1012319E0001002402A
:10201C0000700040600042420B4B5B68FB60FB6849
:10202C0003F480327B681B6A9A4206D1FB6803F486
:10203C0070127B685B6A9A4201D0012300E0002396
:10204C0018461837BD4680BD0010024080B584B0DC
:10205C0000AF786039607B68002B01D10123D0E0A0
:10206C006A4B1B6803F007033A689A4210D9674B16
:10207C001B6823F0070265493B6813430B60634BF5
:10208C001B6803F007033A689A4201D00123B8E0B9
:10209C007B681B6803F00203002B20D07B681B6855
:1020AC0003F00403002B05D0594B5B68584A43F4EA
:1020BC00E06353607B681B6803F00803002B05D0BA
:1020CC00534B5B68524A43F460535360504B5B680C
:1020DC0023F0F0027B689B684D4913434B607B688F
:1020EC001B6803F00103002B40D07B685B68012B5D
:1020FC0007D1474B1B6803F40033002B15D1012388
:10210C007FE07B685B68022B07D1414B1B6803F0B7
:10211C000073002B09D1012373E03D4B1B6803F0C6
:10212C000203002B01D101236BE0394B5B6823F0D8
:10213C0003027B685B68364913434B60FFF728FA50
:10214C00F8600AE0FFF724FA0246FB68D31A41F262
:10215C008832934201D9032353E02D4B5B6803F083
:10216C000C027B685B689B009A42EBD1274B1B6887
:10217C0003F007033A689A4210D2244B1B6823F0F1
:10218C00070222493B6813430B60204B1B6803F08A
:10219C0007033A689A4201D0012332E07B681B683E
:1021AC0003F00403002B08D0194B5B6823F4E062A6
:1021BC007B68DB68164913434B607B681B6803F034
:1021CC000803002B09D0124B5B6823F460527B6828
:1021DC001B69DB000E4913434B6000F021F80246EB
:1021EC000B4B5B681B0903F00F030A49CB5C22FA0B
:1021FC0003F3094A1360094B1B681846FFF786F96D
:10220C00002318461037BD4680BD00BF0020024099
:10221C0000100240502B00086400002068000020D1
:10222C0080B487B000AF0023FB600023BB600023A9
:10223C007B6100237B6000233B611E4B5B68FB6072
:10224C00FB6803F00C03042B02D0082B03D027E00F
:10225C00194B3B6127E0FB689B0C03F00F03174AFB
:10226C00D35C7B60FB6803F48033002B10D0114BE4
:10227C005B685B0C03F00103114AD35CBB607B68A9
:10228C000D4A03FB02F2BB68B2FBF3F37B6104E083
:10229C007B680C4A02FB03F37B617B693B6102E0C8
:1022AC00054B3B6100BF3B6918461C37BD4680BCE3
:1022BC00704700BF0010024000127A00602B00082B
:1022CC00702B000800093D0080B485B000AF786029
:1022DC000A4B1B680A4AA2FB03235B0A7A6802FBBF
:1022EC0003F3FB6000BFFB685A1EFA60002BF9D1A8
:1022FC0000BF00BF1437BD4680BC7047640000208F
:10230C00D34D621080B582B000AF78607B68002B33
:10231C0001D1012341E07B6893F83D30DBB2002B07
:10232C0006D17B68002283F83C207868FFF756F8CA
:10233C007B68022283F83D207B681A687B68043333
:10234C001946104600F06EFA7B68012283F846208D
:10235C007B68012283F83E207B68012283F83F20B2
:10236C007B68012283F840207B68012283F841209E
:10237C007B68012283F842207B68012283F843208A
:10238C007B68012283F844207B68012283F8452076
:10239C007B68012283F83D20002318460837BD4690
:1023AC0080BD000080B485B000AF78607B6893F886
:1023BC003D30DBB2012B01D0012335E07B680222DA
:1023CC0083F83D207B681B68DA687B681B6842F0E9
:1023DC000102DA607B681B68164A934209D07B685D
:1023EC001B68B3F1804F04D07B681B68124A934280
:1023FC0011D17B681B689B6803F00703FB60FB68CB
:10240C00062B10D07B681B681A687B681B6842F02F
:10241C0001021A6007E07B681B681A687B681B68FE
:10242C0042F001021A60002318461437BD4680BCE6
:10243C00704700BF002C01400004004080B582B002
:10244C0000AF78607B681B681B6903F00203022BEA
:10245C0022D17B681B68DB6803F00203022B1BD1C3
:10246C007B681B686FF002021A617B6801221A7785
:10247C007B681B689B6903F00303002B03D078680F
:10248C0000F0B4F905E0786800F0A7F9786800F07E
:10249C00B6F97B6800221A777B681B681B6903F00E
:1024AC000403042B22D17B681B68DB6803F0040354
:1024BC00042B1BD17B681B686FF004021A617B68CC
:1024CC0002221A777B681B689B6903F44073002B0C
:1024DC0003D0786800F08AF905E0786800F07DF99F
:1024EC00786800F08CF97B6800221A777B681B688F
:1024FC001B6903F00803082B22D17B681B68DB687F
:10250C0003F00803082B1BD17B681B686FF00802D3
:10251C001A617B6804221A777B681B68DB6903F0FD
:10252C000303002B03D0786800F060F905E07868AD
:10253C0000F053F9786800F062F97B6800221A7792
:10254C007B681B681B6903F01003102B22D17B687E
:10255C001B68DB6803F01003102B1BD17B681B6816
:10256C006FF010021A617B6808221A777B681B686F
:10257C00DB6903F44073002B03D0786800F036F964
:10258C0005E0786800F029F9786800F038F97B6884
:10259C0000221A777B681B681B6903F00103012B6F
:1025AC000ED17B681B68DB6803F00103012B07D19C
:1025BC007B681B686FF001021A617868FEF7DCFD1E
:1025CC007B681B681B6903F08003802B0ED17B6832
:1025DC001B68DB6803F08003802B07D17B681B68CA
:1025EC006FF080021A61786800F06BFA7B681B68E8
:1025FC001B6903F04003402B0ED17B681B68DB6822
:10260C0003F04003402B07D17B681B686FF040023E
:10261C001A61786800F0FCF87B681B681B6903F092
:10262C002003202B0ED17B681B68DB6803F0200392
:10263C00202B07D17B681B686FF020021A61786829
:10264C0000F036FA00BF0837BD4680BD80B584B0B7
:10265C0000AF786039600023FB737B6893F83C30E3
:10266C00012B01D10223B4E07B68012283F83C20CA
:10267C007B68022283F83D207B681B689B68BB60EB
:10268C00BB6823F07703BB60BB6823F47F43BB605C
:10269C007B681B68BA689A603B681B68B3F5005F7F
:1026AC003ED0B3F5005F00F28780B3F5805F00F099
:1026BC008680B3F5805F7FD8702B1AD0702B7BD8B7
:1026CC00602B50D0602B77D8502B3CD0502B73D82C
:1026DC00402B58D0402B6FD8302B64D0302B6BD87C
:1026EC00202B60D0202B67D8002B5CD0102B5AD01D
:1026FC0062E07B6818683B6899683B685A683B687D
:10270C00DB6800F05EF97B681B689B68BB60BB688C
:10271C0043F07703BB607B681B68BA689A604FE034
:10272C007B6818683B6899683B685A683B68DB684B
:10273C0000F047F97B681B689A687B681B6842F459
:10274C0080429A603CE07B6818683B6859683B683B
:10275C00DB681A4600F0BEF87B681B6850211846EF
:10276C0000F015F92CE07B6818683B6859683B68E9
:10277C00DB681A4600F0DCF87B681B6860211846A1
:10278C0000F005F91CE07B6818683B6859683B68E9
:10279C00DB681A4600F09EF87B681B6840211846DF
:1027AC0000F0F5F80CE07B681A683B681B6819466A
:1027BC00104600F0ECF803E00123FB7300E000BFCF
:1027CC007B68012283F83D207B68002283F83C2043
:1027DC00FB7B18461037BD4680BD80B483B000AF7C
:1027EC00786000BF0C37BD4680BC704780B483B0A6
:1027FC0000AF786000BF0C37BD4680BC704780B41A
:10280C0083B000AF786000BF0C37BD4680BC70470A
:10281C0080B483B000AF786000BF0C37BD4680BC7D
:10282C007047000080B485B000AF786039607B6879
:10283C001B68FB607B68254A934207D07B68B3F129
:10284C00804F03D07B68224A934208D1FB6823F067
:10285C007003FB603B685B68FA681343FB607B6842
:10286C001A4A934207D07B68B3F1804F03D07B6840
:10287C00174A934208D1FB6823F44073FB603B6812
:10288C00DB68FA681343FB60FB6823F080023B684B
:10289C005B691343FB607B68FA681A603B689A6853
:1028AC007B68DA623B681A687B689A627B68074AC5
:1028BC00934203D13B681A697B681A637B680122D7
:1028CC005A6100BF1437BD4680BC7047002C0140D4
:1028DC000004004080B487B000AFF860B9607A6043
:1028EC00FB681B6A7B61FB681B6A23F00102FB68B7
:1028FC001A62FB689B693B613B6923F0F0033B6107
:10290C007B681B013A6913433B617B6923F00A0323
:10291C007B617A69BB6813437B61FB683A699A6196
:10292C00FB687A691A6200BF1C37BD4680BC7047D1
:10293C0080B487B000AFF860B9607A60FB681B6A3E
:10294C007B61FB681B6A23F01002FB681A62FB6850
:10295C009B693B613B6923F470433B617B681B03C0
:10296C003A6913433B617B6923F0A0037B61BB682D
:10297C001B017A6913437B61FB683A699A61FB68B6
:10298C007A691A6200BF1C37BD4680BC704780B4A0
:10299C0085B000AF786039607B689B68FB60FB6832
:1029AC0023F07003FB603A68FB68134343F00703A2
:1029BC00FB607B68FA689A6000BF1437BD4680BC28
:1029CC00704780B487B000AFF860B9607A603B6044
:1029DC00FB689B687B617B6923F47F437B613B686D
:1029EC001A027B681A43BB6813437A6913437B61F1
:1029FC00FB687A699A6000BF1C37BD4680BC704783
:102A0C0080B485B000AF786039607B6893F83C3057
:102A1C00012B01D1022341E07B68012283F83C2089
:102A2C007B68022283F83D207B681B685B68FB6037
:102A3C007B681B689B68BB60FB6823F07003FB60C2
:102A4C003B681B68FA681343FB607B681B68FA6879
:102A5C005A607B681B68144A934209D07B681B68D8
:102A6C00B3F1804F04D07B681B68104A93420CD1A1
:102A7C00BB6823F08003BB603B685B68BA68134398
:102A8C00BB607B681B68BA689A607B68012283F81C
:102A9C003D207B68002283F83C2000231846143725
:102AAC00BD4680BC704700BF002C014000040040B4
:102ABC0080B483B000AF786000BF0C37BD4680BCDB
:102ACC00704780B483B000AF786000BF0C37BD4650
:102ADC0080BC704770B500260C4D0D4C641BA410C7
:102AEC00A64209D100F022F800260A4D0A4C641BBC
:102AFC00A410A64205D170BD55F8043B9847013689
:102B0C00EEE755F8043B98470136F2E7742B0008C2
:102B1C00742B0008742B0008782B00080346024421
:102B2C00934200D1704703F8011BF9E7F8B500BFD9
:102B3C00F8BC08BC9E467047F8B500BFF8BC08BC92
:042B4C009E467047EA
:102B5000000000000000000001020304060708094D
:102B600002030405060708090A0B0C0D0E0F1010CE
:042B7000010200005E
:042B74003101000823
:042B78000D01000843
:102B7C00C8000000C8000000C800000001000000F0
:102B8C000100000001000000010000000100000035
:102B9C000100000001000000010000000100000025
:102BAC000100000001000000010000000100000015
:102BBC000D000000010000000500000002000000F4
:102BCC0003000000050000000200000003000000EC
:102BDC000A0000000024F4001000000001000000B6
:04000005080014A13A
:00000001FF
